{
  "_format": "hh-sol-artifact-1",
  "contractName": "SplitPayment",
  "sourceName": "contracts/SplitFund.sol",
  "abi": [
    {
      "inputs": [],
      "stateMutability": "nonpayable",
      "type": "constructor"
    },
    {
      "anonymous": false,
      "inputs": [
        {
          "indexed": true,
          "internalType": "address",
          "name": "sender",
          "type": "address"
        },
        {
          "indexed": false,
          "internalType": "address[]",
          "name": "recipients",
          "type": "address[]"
        },
        {
          "indexed": false,
          "internalType": "uint256[]",
          "name": "amounts",
          "type": "uint256[]"
        },
        {
          "indexed": false,
          "internalType": "uint256",
          "name": "timestamp",
          "type": "uint256"
        }
      ],
      "name": "PaymentSent",
      "type": "event"
    },
    {
      "inputs": [
        {
          "internalType": "uint256",
          "name": "index",
          "type": "uint256"
        }
      ],
      "name": "getPayment",
      "outputs": [
        {
          "internalType": "address",
          "name": "sender",
          "type": "address"
        },
        {
          "internalType": "address[]",
          "name": "recipients",
          "type": "address[]"
        },
        {
          "internalType": "uint256[]",
          "name": "amounts",
          "type": "uint256[]"
        },
        {
          "internalType": "uint256",
          "name": "timestamp",
          "type": "uint256"
        }
      ],
      "stateMutability": "view",
      "type": "function"
    },
    {
      "inputs": [],
      "name": "getPaymentsCount",
      "outputs": [
        {
          "internalType": "uint256",
          "name": "",
          "type": "uint256"
        }
      ],
      "stateMutability": "view",
      "type": "function"
    },
    {
      "inputs": [],
      "name": "owner",
      "outputs": [
        {
          "internalType": "address",
          "name": "",
          "type": "address"
        }
      ],
      "stateMutability": "view",
      "type": "function"
    },
    {
      "inputs": [
        {
          "internalType": "uint256",
          "name": "",
          "type": "uint256"
        }
      ],
      "name": "payments",
      "outputs": [
        {
          "internalType": "address",
          "name": "sender",
          "type": "address"
        },
        {
          "internalType": "uint256",
          "name": "timestamp",
          "type": "uint256"
        }
      ],
      "stateMutability": "view",
      "type": "function"
    },
    {
      "inputs": [
        {
          "internalType": "address[]",
          "name": "recipients",
          "type": "address[]"
        },
        {
          "internalType": "uint256[]",
          "name": "amounts",
          "type": "uint256[]"
        }
      ],
      "name": "splitPayment",
      "outputs": [],
      "stateMutability": "payable",
      "type": "function"
    }
  ],
  "bytecode": "0x6080604052348015600f57600080fd5b50336000806101000a81548173ffffffffffffffffffffffffffffffffffffffff021916908373ffffffffffffffffffffffffffffffffffffffff160217905550610f8c8061005f6000396000f3fe60806040526004361061004a5760003560e01c80633280a8361461004f57806387d817891461008f5780638da5cb5b146100cd5780638eab0f15146100f8578063cacf1e0e14610114575b600080fd5b34801561005b57600080fd5b50610076600480360381019061007191906107cb565b61013f565b60405161008694939291906109c4565b60405180910390f35b34801561009b57600080fd5b506100b660048036038101906100b191906107cb565b6102cf565b6040516100c4929190610a17565b60405180910390f35b3480156100d957600080fd5b506100e2610323565b6040516100ef9190610a40565b60405180910390f35b610112600480360381019061010d9190610b16565b610347565b005b34801561012057600080fd5b5061012961068a565b6040516101369190610b97565b60405180910390f35b60006060806000600180549050851061018d576040517f08c379a000000000000000000000000000000000000000000000000000000000815260040161018490610c0f565b60405180910390fd5b6000600186815481106101a3576101a2610c2f565b5b906000526020600020906004020190508060000160009054906101000a900473ffffffffffffffffffffffffffffffffffffffff16816001018260020183600301548280548060200260200160405190810160405280929190818152602001828054801561026657602002820191906000526020600020905b8160009054906101000a900473ffffffffffffffffffffffffffffffffffffffff1673ffffffffffffffffffffffffffffffffffffffff168152602001906001019080831161021c575b50505050509250818054806020026020016040519081016040528092919081815260200182805480156102b857602002820191906000526020600020905b8154815260200190600101908083116102a4575b505050505091509450945094509450509193509193565b600181815481106102df57600080fd5b90600052602060002090600402016000915090508060000160009054906101000a900473ffffffffffffffffffffffffffffffffffffffff16908060030154905082565b60008054906101000a900473ffffffffffffffffffffffffffffffffffffffff1681565b81819050848490501461038f576040517f08c379a000000000000000000000000000000000000000000000000000000000815260040161038690610cd0565b60405180910390fd5b600080600090505b838390508110156103d6578383828181106103b5576103b4610c2f565b5b90506020020135826103c79190610d1f565b91508080600101915050610397565b50803414610419576040517f08c379a000000000000000000000000000000000000000000000000000000000815260040161041090610d9f565b60405180910390fd5b60005b858590508110156104bb5785858281811061043a57610439610c2f565b5b905060200201602081019061044f9190610deb565b73ffffffffffffffffffffffffffffffffffffffff166108fc85858481811061047b5761047a610c2f565b5b905060200201359081150290604051600060405180830381858888f193505050501580156104ad573d6000803e3d6000fd5b50808060010191505061041c565b50600160405180608001604052803373ffffffffffffffffffffffffffffffffffffffff168152602001878780806020026020016040519081016040528093929190818152602001838360200280828437600081840152601f19601f820116905080830192505050505050508152602001858580806020026020016040519081016040528093929190818152602001838360200280828437600081840152601f19601f82011690508083019250505050505050815260200142815250908060018154018082558091505060019003906000526020600020906004020160009091909190915060008201518160000160006101000a81548173ffffffffffffffffffffffffffffffffffffffff021916908373ffffffffffffffffffffffffffffffffffffffff1602179055506020820151816001019080519060200190610603929190610697565b506040820151816002019080519060200190610620929190610721565b506060820151816003015550503373ffffffffffffffffffffffffffffffffffffffff167fc5f7f68c8e163f3a6a4437aad132fa91dc88b8413b234cc349a9c961e41dc9c5868686864260405161067b959493929190610f0d565b60405180910390a25050505050565b6000600180549050905090565b828054828255906000526020600020908101928215610710579160200282015b8281111561070f5782518260006101000a81548173ffffffffffffffffffffffffffffffffffffffff021916908373ffffffffffffffffffffffffffffffffffffffff160217905550916020019190600101906106b7565b5b50905061071d919061076e565b5090565b82805482825590600052602060002090810192821561075d579160200282015b8281111561075c578251825591602001919060010190610741565b5b50905061076a919061076e565b5090565b5b8082111561078757600081600090555060010161076f565b5090565b600080fd5b600080fd5b6000819050919050565b6107a881610795565b81146107b357600080fd5b50565b6000813590506107c58161079f565b92915050565b6000602082840312156107e1576107e061078b565b5b60006107ef848285016107b6565b91505092915050565b600073ffffffffffffffffffffffffffffffffffffffff82169050919050565b6000610823826107f8565b9050919050565b61083381610818565b82525050565b600081519050919050565b600082825260208201905092915050565b6000819050602082019050919050565b61086e81610818565b82525050565b60006108808383610865565b60208301905092915050565b6000602082019050919050565b60006108a482610839565b6108ae8185610844565b93506108b983610855565b8060005b838110156108ea5781516108d18882610874565b97506108dc8361088c565b9250506001810190506108bd565b5085935050505092915050565b600081519050919050565b600082825260208201905092915050565b6000819050602082019050919050565b61092c81610795565b82525050565b600061093e8383610923565b60208301905092915050565b6000602082019050919050565b6000610962826108f7565b61096c8185610902565b935061097783610913565b8060005b838110156109a857815161098f8882610932565b975061099a8361094a565b92505060018101905061097b565b5085935050505092915050565b6109be81610795565b82525050565b60006080820190506109d9600083018761082a565b81810360208301526109eb8186610899565b905081810360408301526109ff8185610957565b9050610a0e60608301846109b5565b95945050505050565b6000604082019050610a2c600083018561082a565b610a3960208301846109b5565b9392505050565b6000602082019050610a55600083018461082a565b92915050565b600080fd5b600080fd5b600080fd5b60008083601f840112610a8057610a7f610a5b565b5b8235905067ffffffffffffffff811115610a9d57610a9c610a60565b5b602083019150836020820283011115610ab957610ab8610a65565b5b9250929050565b60008083601f840112610ad657610ad5610a5b565b5b8235905067ffffffffffffffff811115610af357610af2610a60565b5b602083019150836020820283011115610b0f57610b0e610a65565b5b9250929050565b60008060008060408587031215610b3057610b2f61078b565b5b600085013567ffffffffffffffff811115610b4e57610b4d610790565b5b610b5a87828801610a6a565b9450945050602085013567ffffffffffffffff811115610b7d57610b7c610790565b5b610b8987828801610ac0565b925092505092959194509250565b6000602082019050610bac60008301846109b5565b92915050565b600082825260208201905092915050565b7f496e76616c696420696e64657800000000000000000000000000000000000000600082015250565b6000610bf9600d83610bb2565b9150610c0482610bc3565b602082019050919050565b60006020820190508181036000830152610c2881610bec565b9050919050565b7f4e487b7100000000000000000000000000000000000000000000000000000000600052603260045260246000fd5b7f526563697069656e747320616e6420616d6f756e7473206c656e677468206d6960008201527f736d617463680000000000000000000000000000000000000000000000000000602082015250565b6000610cba602683610bb2565b9150610cc582610c5e565b604082019050919050565b60006020820190508181036000830152610ce981610cad565b9050919050565b7f4e487b7100000000000000000000000000000000000000000000000000000000600052601160045260246000fd5b6000610d2a82610795565b9150610d3583610795565b9250828201905080821115610d4d57610d4c610cf0565b5b92915050565b7f496e636f7272656374204554482073656e740000000000000000000000000000600082015250565b6000610d89601283610bb2565b9150610d9482610d53565b602082019050919050565b60006020820190508181036000830152610db881610d7c565b9050919050565b610dc881610818565b8114610dd357600080fd5b50565b600081359050610de581610dbf565b92915050565b600060208284031215610e0157610e0061078b565b5b6000610e0f84828501610dd6565b91505092915050565b6000819050919050565b6000610e316020840184610dd6565b905092915050565b6000602082019050919050565b6000610e528385610844565b9350610e5d82610e18565b8060005b85811015610e9657610e738284610e22565b610e7d8882610874565b9750610e8883610e39565b925050600181019050610e61565b5085925050509392505050565b600080fd5b82818337505050565b6000610ebd8385610902565b93507f07ffffffffffffffffffffffffffffffffffffffffffffffffffffffffffffff831115610ef057610eef610ea3565b5b602083029250610f01838584610ea8565b82840190509392505050565b60006060820190508181036000830152610f28818789610e46565b90508181036020830152610f3d818587610eb1565b9050610f4c60408301846109b5565b969550505050505056fea2646970667358221220cc46c49583cbfcf97b052e51310a5a1ff9c6f3350f291f80c652858ea749daf764736f6c634300081c0033",
  "linkReferences": {},
  "deployedLinkReferences": {}
}